{
  "_format": "hh-sol-artifact-1",
  "contractName": "BlocVote",
  "sourceName": "contracts/BlocVote.sol",
  "abi": [
    {
      "inputs": [],
      "stateMutability": "nonpayable",
      "type": "constructor"
    },
    {
      "inputs": [
        {
          "internalType": "uint256",
          "name": "_candidateId",
          "type": "uint256"
        }
      ],
      "name": "candidateResult",
      "outputs": [
        {
          "internalType": "uint256",
          "name": "",
          "type": "uint256"
        }
      ],
      "stateMutability": "view",
      "type": "function"
    },
    {
      "inputs": [
        {
          "internalType": "uint256",
          "name": "",
          "type": "uint256"
        }
      ],
      "name": "candidates",
      "outputs": [
        {
          "internalType": "uint256",
          "name": "id",
          "type": "uint256"
        },
        {
          "internalType": "string",
          "name": "name",
          "type": "string"
        },
        {
          "internalType": "uint256",
          "name": "officeId",
          "type": "uint256"
        },
        {
          "internalType": "bool",
          "name": "isValid",
          "type": "bool"
        },
        {
          "internalType": "uint256",
          "name": "votes",
          "type": "uint256"
        }
      ],
      "stateMutability": "view",
      "type": "function"
    },
    {
      "inputs": [
        {
          "internalType": "uint256",
          "name": "_candidateId",
          "type": "uint256"
        },
        {
          "internalType": "uint256",
          "name": "_voterId",
          "type": "uint256"
        }
      ],
      "name": "castVote",
      "outputs": [],
      "stateMutability": "nonpayable",
      "type": "function"
    },
    {
      "inputs": [],
      "name": "chairman",
      "outputs": [
        {
          "internalType": "address",
          "name": "",
          "type": "address"
        }
      ],
      "stateMutability": "view",
      "type": "function"
    },
    {
      "inputs": [
        {
          "internalType": "address",
          "name": "_newChairman",
          "type": "address"
        }
      ],
      "name": "changeChairman",
      "outputs": [],
      "stateMutability": "nonpayable",
      "type": "function"
    },
    {
      "inputs": [],
      "name": "deployer",
      "outputs": [
        {
          "internalType": "address",
          "name": "",
          "type": "address"
        }
      ],
      "stateMutability": "view",
      "type": "function"
    },
    {
      "inputs": [],
      "name": "getResult",
      "outputs": [
        {
          "components": [
            {
              "internalType": "uint256",
              "name": "candidateId",
              "type": "uint256"
            },
            {
              "internalType": "uint256",
              "name": "officeId",
              "type": "uint256"
            },
            {
              "internalType": "uint256",
              "name": "votes",
              "type": "uint256"
            }
          ],
          "internalType": "struct IBlocVote.Result[]",
          "name": "",
          "type": "tuple[]"
        }
      ],
      "stateMutability": "view",
      "type": "function"
    },
    {
      "inputs": [
        {
          "internalType": "uint256",
          "name": "",
          "type": "uint256"
        }
      ],
      "name": "offices",
      "outputs": [
        {
          "internalType": "uint256",
          "name": "id",
          "type": "uint256"
        },
        {
          "internalType": "string",
          "name": "name",
          "type": "string"
        },
        {
          "internalType": "bool",
          "name": "isValid",
          "type": "bool"
        },
        {
          "internalType": "uint256",
          "name": "candidatesCount",
          "type": "uint256"
        }
      ],
      "stateMutability": "view",
      "type": "function"
    },
    {
      "inputs": [
        {
          "internalType": "uint256",
          "name": "_candidateId",
          "type": "uint256"
        }
      ],
      "name": "reactivateCandidate",
      "outputs": [],
      "stateMutability": "nonpayable",
      "type": "function"
    },
    {
      "inputs": [
        {
          "internalType": "uint256",
          "name": "_officeId",
          "type": "uint256"
        }
      ],
      "name": "reactivateOffice",
      "outputs": [],
      "stateMutability": "nonpayable",
      "type": "function"
    },
    {
      "inputs": [
        {
          "internalType": "string",
          "name": "_name",
          "type": "string"
        },
        {
          "internalType": "uint256",
          "name": "_officeId",
          "type": "uint256"
        }
      ],
      "name": "registerCandidate",
      "outputs": [],
      "stateMutability": "nonpayable",
      "type": "function"
    },
    {
      "inputs": [
        {
          "internalType": "string",
          "name": "_name",
          "type": "string"
        }
      ],
      "name": "registerOffice",
      "outputs": [],
      "stateMutability": "nonpayable",
      "type": "function"
    },
    {
      "inputs": [
        {
          "internalType": "uint256",
          "name": "_candidateId",
          "type": "uint256"
        }
      ],
      "name": "removeCandidate",
      "outputs": [],
      "stateMutability": "nonpayable",
      "type": "function"
    },
    {
      "inputs": [
        {
          "internalType": "uint256",
          "name": "_officeId",
          "type": "uint256"
        }
      ],
      "name": "removeOffice",
      "outputs": [],
      "stateMutability": "nonpayable",
      "type": "function"
    },
    {
      "inputs": [
        {
          "internalType": "uint256",
          "name": "",
          "type": "uint256"
        }
      ],
      "name": "votes",
      "outputs": [
        {
          "internalType": "uint256",
          "name": "candidateId",
          "type": "uint256"
        },
        {
          "internalType": "uint256",
          "name": "voterId",
          "type": "uint256"
        }
      ],
      "stateMutability": "view",
      "type": "function"
    }
  ],
  "bytecode": "0x60a06040523373ffffffffffffffffffffffffffffffffffffffff1660809073ffffffffffffffffffffffffffffffffffffffff1681525034801561004357600080fd5b50336000806101000a81548173ffffffffffffffffffffffffffffffffffffffff021916908373ffffffffffffffffffffffffffffffffffffffff1602179055506080516115f061009f600039600061079401526115f06000f3fe608060405234801561001057600080fd5b50600436106100f55760003560e01c806387f7b97511610097578063d8ee9edd11610066578063d8ee9edd14610276578063de292789146102a6578063e8101869146102c4578063f518b526146102e0576100f5565b806387f7b97514610202578063a5cab33214610220578063b272dc9d1461023c578063d5f3948814610258576100f5565b806357e2c58c116100d357806357e2c58c146101665780635cf64cff146101825780635df813301461019e57806360f1267c146101cf576100f5565b806309e9d7e2146100fa5780632c0a3f89146101165780633477ee2e14610132575b600080fd5b610114600480360381019061010f9190610c35565b6102fc565b005b610130600480360381019061012b9190610c62565b61033d565b005b61014c60048036038101906101479190610c35565b6103d2565b60405161015d959493929190610d5c565b60405180910390f35b610180600480360381019061017b9190610c35565b6104ad565b005b61019c60048036038101906101979190610c35565b6104ee565b005b6101b860048036038101906101b39190610c35565b61052f565b6040516101c6929190610db6565b60405180910390f35b6101e960048036038101906101e49190610c35565b610563565b6040516101f99493929190610ddf565b60405180910390f35b61020a610638565b6040516102179190610e6c565b60405180910390f35b61023a60048036038101906102359190610c35565b61065c565b005b61025660048036038101906102519190610eec565b61069d565b005b610260610792565b60405161026d9190610e6c565b60405180910390f35b610290600480360381019061028b9190610c35565b6107b6565b60405161029d9190610f39565b60405180910390f35b6102ae6107ea565b6040516102bb9190611054565b60405180910390f35b6102de60048036038101906102d991906110a2565b61092a565b005b6102fa60048036038101906102f591906110cf565b6109fb565b005b6000600282815481106103125761031161112f565b5b906000526020600020906005020160030160006101000a81548160ff02191690831515021790555050565b6001604051806040016040528084815260200183815250908060018154018082558091505060019003906000526020600020906002020160009091909190915060008201518160000155602082015181600101555050600282815481106103a7576103a661112f565b5b906000526020600020906005020160040160008154809291906103c99061118d565b91905055505050565b600281815481106103e257600080fd5b906000526020600020906005020160009150905080600001549080600101805461040b90611204565b80601f016020809104026020016040519081016040528092919081815260200182805461043790611204565b80156104845780601f1061045957610100808354040283529160200191610484565b820191906000526020600020905b81548152906001019060200180831161046757829003601f168201915b5050505050908060020154908060030160009054906101000a900460ff16908060040154905085565b6000600382815481106104c3576104c261112f565b5b906000526020600020906004020160020160006101000a81548160ff02191690831515021790555050565b6001600382815481106105045761050361112f565b5b906000526020600020906004020160020160006101000a81548160ff02191690831515021790555050565b6001818154811061053f57600080fd5b90600052602060002090600202016000915090508060000154908060010154905082565b6003818154811061057357600080fd5b906000526020600020906004020160009150905080600001549080600101805461059c90611204565b80601f01602080910402602001604051908101604052809291908181526020018280546105c890611204565b80156106155780601f106105ea57610100808354040283529160200191610615565b820191906000526020600020905b8154815290600101906020018083116105f857829003601f168201915b5050505050908060020160009054906101000a900460ff16908060030154905084565b60008054906101000a900473ffffffffffffffffffffffffffffffffffffffff1681565b6001600282815481106106725761067161112f565b5b906000526020600020906005020160030160006101000a81548160ff02191690831515021790555050565b600060038054905090506000604051806080016040528083815260200185858080601f016020809104026020016040519081016040528093929190818152602001838380828437600081840152601f19601f82011690508083019250505050505050815260200160011515815260200160008152509050600381908060018154018082558091505060019003906000526020600020906004020160009091909190915060008201518160000155602082015181600101908161075f9190611410565b5060408201518160020160006101000a81548160ff02191690831515021790555060608201518160030155505050505050565b7f000000000000000000000000000000000000000000000000000000000000000081565b600080600283815481106107cd576107cc61112f565b5b906000526020600020906005020160040154905080915050919050565b6060600060028054905067ffffffffffffffff81111561080d5761080c611235565b5b60405190808252806020026020018201604052801561084657816020015b610833610bd4565b81526020019060019003908161082b5790505b50905060005b600280549050811015610922576002818154811061086d5761086c61112f565b5b906000526020600020906005020160030160009054906101000a900460ff1615610915576040518060600160405280828152602001600283815481106108b6576108b561112f565b5b9060005260206000209060050201600201548152602001600283815481106108e1576108e061112f565b5b9060005260206000209060050201600401548152508282815181106109095761090861112f565b5b60200260200101819052505b808060010191505061084c565b508091505090565b60008054906101000a900473ffffffffffffffffffffffffffffffffffffffff1673ffffffffffffffffffffffffffffffffffffffff163373ffffffffffffffffffffffffffffffffffffffff16146109b8576040517f08c379a00000000000000000000000000000000000000000000000000000000081526004016109af9061152e565b60405180910390fd5b806000806101000a81548173ffffffffffffffffffffffffffffffffffffffff021916908373ffffffffffffffffffffffffffffffffffffffff16021790555050565b60038181548110610a0f57610a0e61112f565b5b906000526020600020906004020160020160009054906101000a900460ff16610a6d576040517f08c379a0000000000000000000000000000000000000000000000000000000008152600401610a649061159a565b60405180910390fd5b6000600280549050905060006040518060a0016040528083815260200186868080601f016020809104026020016040519081016040528093929190818152602001838380828437600081840152601f19601f82011690508083019250505050505050815260200184815260200160011515815260200160008152509050600060038481548110610b0057610aff61112f565b5b90600052602060002090600402016003015490508080610b1f9061118d565b915060038581548110610b3557610b3461112f565b5b9060005260206000209060040201600301819055506002829080600181540180825580915050600190039060005260206000209060050201600090919091909150600082015181600001556020820151816001019081610b959190611410565b506040820151816002015560608201518160030160006101000a81548160ff021916908315150217905550608082015181600401555050505050505050565b60405180606001604052806000815260200160008152602001600081525090565b600080fd5b600080fd5b6000819050919050565b610c1281610bff565b8114610c1d57600080fd5b50565b600081359050610c2f81610c09565b92915050565b600060208284031215610c4b57610c4a610bf5565b5b6000610c5984828501610c20565b91505092915050565b60008060408385031215610c7957610c78610bf5565b5b6000610c8785828601610c20565b9250506020610c9885828601610c20565b9150509250929050565b610cab81610bff565b82525050565b600081519050919050565b600082825260208201905092915050565b60005b83811015610ceb578082015181840152602081019050610cd0565b60008484015250505050565b6000601f19601f8301169050919050565b6000610d1382610cb1565b610d1d8185610cbc565b9350610d2d818560208601610ccd565b610d3681610cf7565b840191505092915050565b60008115159050919050565b610d5681610d41565b82525050565b600060a082019050610d716000830188610ca2565b8181036020830152610d838187610d08565b9050610d926040830186610ca2565b610d9f6060830185610d4d565b610dac6080830184610ca2565b9695505050505050565b6000604082019050610dcb6000830185610ca2565b610dd86020830184610ca2565b9392505050565b6000608082019050610df46000830187610ca2565b8181036020830152610e068186610d08565b9050610e156040830185610d4d565b610e226060830184610ca2565b95945050505050565b600073ffffffffffffffffffffffffffffffffffffffff82169050919050565b6000610e5682610e2b565b9050919050565b610e6681610e4b565b82525050565b6000602082019050610e816000830184610e5d565b92915050565b600080fd5b600080fd5b600080fd5b60008083601f840112610eac57610eab610e87565b5b8235905067ffffffffffffffff811115610ec957610ec8610e8c565b5b602083019150836001820283011115610ee557610ee4610e91565b5b9250929050565b60008060208385031215610f0357610f02610bf5565b5b600083013567ffffffffffffffff811115610f2157610f20610bfa565b5b610f2d85828601610e96565b92509250509250929050565b6000602082019050610f4e6000830184610ca2565b92915050565b600081519050919050565b600082825260208201905092915050565b6000819050602082019050919050565b610f8981610bff565b82525050565b606082016000820151610fa56000850182610f80565b506020820151610fb86020850182610f80565b506040820151610fcb6040850182610f80565b50505050565b6000610fdd8383610f8f565b60608301905092915050565b6000602082019050919050565b600061100182610f54565b61100b8185610f5f565b935061101683610f70565b8060005b8381101561104757815161102e8882610fd1565b975061103983610fe9565b92505060018101905061101a565b5085935050505092915050565b6000602082019050818103600083015261106e8184610ff6565b905092915050565b61107f81610e4b565b811461108a57600080fd5b50565b60008135905061109c81611076565b92915050565b6000602082840312156110b8576110b7610bf5565b5b60006110c68482850161108d565b91505092915050565b6000806000604084860312156110e8576110e7610bf5565b5b600084013567ffffffffffffffff81111561110657611105610bfa565b5b61111286828701610e96565b9350935050602061112586828701610c20565b9150509250925092565b7f4e487b7100000000000000000000000000000000000000000000000000000000600052603260045260246000fd5b7f4e487b7100000000000000000000000000000000000000000000000000000000600052601160045260246000fd5b600061119882610bff565b91507fffffffffffffffffffffffffffffffffffffffffffffffffffffffffffffffff82036111ca576111c961115e565b5b600182019050919050565b7f4e487b7100000000000000000000000000000000000000000000000000000000600052602260045260246000fd5b6000600282049050600182168061121c57607f821691505b60208210810361122f5761122e6111d5565b5b50919050565b7f4e487b7100000000000000000000000000000000000000000000000000000000600052604160045260246000fd5b60008190508160005260206000209050919050565b60006020601f8301049050919050565b600082821b905092915050565b6000600883026112c67fffffffffffffffffffffffffffffffffffffffffffffffffffffffffffffffff82611289565b6112d08683611289565b95508019841693508086168417925050509392505050565b6000819050919050565b600061130d61130861130384610bff565b6112e8565b610bff565b9050919050565b6000819050919050565b611327836112f2565b61133b61133382611314565b848454611296565b825550505050565b600090565b611350611343565b61135b81848461131e565b505050565b5b8181101561137f57611374600082611348565b600181019050611361565b5050565b601f8211156113c45761139581611264565b61139e84611279565b810160208510156113ad578190505b6113c16113b985611279565b830182611360565b50505b505050565b600082821c905092915050565b60006113e7600019846008026113c9565b1980831691505092915050565b600061140083836113d6565b9150826002028217905092915050565b61141982610cb1565b67ffffffffffffffff81111561143257611431611235565b5b61143c8254611204565b611447828285611383565b600060209050601f83116001811461147a5760008415611468578287015190505b61147285826113f4565b8655506114da565b601f19841661148886611264565b60005b828110156114b05784890151825560018201915060208501945060208101905061148b565b868310156114cd57848901516114c9601f8916826113d6565b8355505b6001600288020188555050505b505050505050565b7f756e617574686f72697a65640000000000000000000000000000000000000000600082015250565b6000611518600c83610cbc565b9150611523826114e2565b602082019050919050565b600060208201905081810360008301526115478161150b565b9050919050565b7f496e76616c6964206f6666696365206964000000000000000000000000000000600082015250565b6000611584601183610cbc565b915061158f8261154e565b602082019050919050565b600060208201905081810360008301526115b381611577565b905091905056fea264697066735822122024db03eb200b4aabbffa99998329b5564c5924eae231fd069c7f6e35b462392364736f6c63430008180033",
  "linkReferences": {},
  "deployedLinkReferences": {}
}