{
  "_format": "hh-sol-artifact-1",
  "contractName": "ContractFactory",
  "sourceName": "contracts/ContractFactory.sol",
  "abi": [
    {
      "inputs": [],
      "name": "deploy",
      "outputs": [
        {
          "internalType": "contract BlocVote",
          "name": "",
          "type": "address"
        }
      ],
      "stateMutability": "nonpayable",
      "type": "function"
    },
    {
      "inputs": [],
      "name": "deployedContracts",
      "outputs": [
        {
          "internalType": "contract BlocVote[]",
          "name": "",
          "type": "address[]"
        }
      ],
      "stateMutability": "view",
      "type": "function"
    },
    {
      "inputs": [],
      "name": "latestDeploy",
      "outputs": [
        {
          "internalType": "contract BlocVote",
          "name": "",
          "type": "address"
        }
      ],
      "stateMutability": "view",
      "type": "function"
    }
  ],
  "bytecode": "0x608060405234801561001057600080fd5b50611c19806100206000396000f3fe608060405234801561001057600080fd5b50600436106100415760003560e01c80630ef7eb9c14610046578063775c300c14610064578063c54a958814610082575b600080fd5b61004e6100a0565b60405161005b91906102a7565b60405180910390f35b61006c6100ea565b60405161007991906102a7565b60405180910390f35b61008a61018d565b6040516100979190610380565b60405180910390f35b600080600080549050815481106100ba576100b96103a2565b5b9060005260206000200160009054906101000a900473ffffffffffffffffffffffffffffffffffffffff16905090565b600080336040516100fa9061021b565b61010491906103f2565b604051809103906000f080158015610120573d6000803e3d6000fd5b5090506000819080600181540180825580915050600190039060005260206000200160009091909190916101000a81548173ffffffffffffffffffffffffffffffffffffffff021916908373ffffffffffffffffffffffffffffffffffffffff1602179055508091505090565b6060600080548060200260200160405190810160405280929190818152602001828054801561021157602002820191906000526020600020905b8160009054906101000a900473ffffffffffffffffffffffffffffffffffffffff1673ffffffffffffffffffffffffffffffffffffffff16815260200190600101908083116101c7575b5050505050905090565b6117d68061040e83390190565b600073ffffffffffffffffffffffffffffffffffffffff82169050919050565b6000819050919050565b600061026d61026861026384610228565b610248565b610228565b9050919050565b600061027f82610252565b9050919050565b600061029182610274565b9050919050565b6102a181610286565b82525050565b60006020820190506102bc6000830184610298565b92915050565b600081519050919050565b600082825260208201905092915050565b6000819050602082019050919050565b6102f781610286565b82525050565b600061030983836102ee565b60208301905092915050565b6000602082019050919050565b600061032d826102c2565b61033781856102cd565b9350610342836102de565b8060005b8381101561037357815161035a88826102fd565b975061036583610315565b925050600181019050610346565b5085935050505092915050565b6000602082019050818103600083015261039a8184610322565b905092915050565b7f4e487b7100000000000000000000000000000000000000000000000000000000600052603260045260246000fd5b60006103dc82610228565b9050919050565b6103ec816103d1565b82525050565b600060208201905061040760008301846103e3565b9291505056fe60a06040523373ffffffffffffffffffffffffffffffffffffffff1660809073ffffffffffffffffffffffffffffffffffffffff168152503480156200004457600080fd5b50604051620017d6380380620017d683398181016040528101906200006a91906200011b565b806000806101000a81548173ffffffffffffffffffffffffffffffffffffffff021916908373ffffffffffffffffffffffffffffffffffffffff160217905550506200014d565b600080fd5b600073ffffffffffffffffffffffffffffffffffffffff82169050919050565b6000620000e382620000b6565b9050919050565b620000f581620000d6565b81146200010157600080fd5b50565b6000815190506200011581620000ea565b92915050565b600060208284031215620001345762000133620000b1565b5b6000620001448482850162000104565b91505092915050565b60805161166d620001696000396000610778015261166d6000f3fe608060405234801561001057600080fd5b50600436106100f55760003560e01c806387f7b97511610097578063d8ee9edd11610066578063d8ee9edd14610276578063de292789146102a6578063e8101869146102c4578063f518b526146102e0576100f5565b806387f7b97514610202578063a5cab33214610220578063b272dc9d1461023c578063d5f3948814610258576100f5565b806357e2c58c116100d357806357e2c58c146101665780635cf64cff146101825780635df813301461019e57806360f1267c146101cf576100f5565b806309e9d7e2146100fa5780633477ee2e146101165780634d10dbc61461014a575b600080fd5b610114600480360381019061010f9190610bb1565b6102fc565b005b610130600480360381019061012b9190610bb1565b61033d565b604051610141959493929190610c98565b60405180910390f35b610164600480360381019061015f9190610e8f565b610418565b005b610180600480360381019061017b9190610bb1565b610491565b005b61019c60048036038101906101979190610bb1565b6104d2565b005b6101b860048036038101906101b39190610bb1565b610513565b6040516101c6929190610ed8565b60405180910390f35b6101e960048036038101906101e49190610bb1565b610547565b6040516101f99493929190610f01565b60405180910390f35b61020a61061c565b6040516102179190610f8e565b60405180910390f35b61023a60048036038101906102359190610bb1565b610640565b005b61025660048036038101906102519190611004565b610681565b005b610260610776565b60405161026d9190610f8e565b60405180910390f35b610290600480360381019061028b9190610bb1565b61079a565b60405161029d9190611051565b60405180910390f35b6102ae6107ce565b6040516102bb919061116c565b60405180910390f35b6102de60048036038101906102d991906111ba565b61090e565b005b6102fa60048036038101906102f591906111e7565b6109df565b005b60006002828154811061031257610311611247565b5b906000526020600020906005020160030160006101000a81548160ff02191690831515021790555050565b6002818154811061034d57600080fd5b9060005260206000209060050201600091509050806000015490806001018054610376906112a5565b80601f01602080910402602001604051908101604052809291908181526020018280546103a2906112a5565b80156103ef5780601f106103c4576101008083540402835291602001916103ef565b820191906000526020600020905b8154815290600101906020018083116103d257829003601f168201915b5050505050908060020154908060030160009054906101000a900460ff16908060040154905085565b60005b815181101561048d57600182828151811061043957610438611247565b5b6020026020010151908060018154018082558091505060019003906000526020600020906002020160009091909190915060008201518160000155602082015181600101555050808060010191505061041b565b5050565b6000600382815481106104a7576104a6611247565b5b906000526020600020906004020160020160006101000a81548160ff02191690831515021790555050565b6001600382815481106104e8576104e7611247565b5b906000526020600020906004020160020160006101000a81548160ff02191690831515021790555050565b6001818154811061052357600080fd5b90600052602060002090600202016000915090508060000154908060010154905082565b6003818154811061055757600080fd5b9060005260206000209060040201600091509050806000015490806001018054610580906112a5565b80601f01602080910402602001604051908101604052809291908181526020018280546105ac906112a5565b80156105f95780601f106105ce576101008083540402835291602001916105f9565b820191906000526020600020905b8154815290600101906020018083116105dc57829003601f168201915b5050505050908060020160009054906101000a900460ff16908060030154905084565b60008054906101000a900473ffffffffffffffffffffffffffffffffffffffff1681565b60016002828154811061065657610655611247565b5b906000526020600020906005020160030160006101000a81548160ff02191690831515021790555050565b600060038054905090506000604051806080016040528083815260200185858080601f016020809104026020016040519081016040528093929190818152602001838380828437600081840152601f19601f8201169050808301925050505050505081526020016001151581526020016000815250905060038190806001815401808255809150506001900390600052602060002090600402016000909190919091506000820151816000015560208201518160010190816107439190611482565b5060408201518160020160006101000a81548160ff02191690831515021790555060608201518160030155505050505050565b7f000000000000000000000000000000000000000000000000000000000000000081565b600080600283815481106107b1576107b0611247565b5b906000526020600020906005020160040154905080915050919050565b6060600060028054905067ffffffffffffffff8111156107f1576107f0610cf7565b5b60405190808252806020026020018201604052801561082a57816020015b610817610b46565b81526020019060019003908161080f5790505b50905060005b600280549050811015610906576002818154811061085157610850611247565b5b906000526020600020906005020160030160009054906101000a900460ff16156108f95760405180606001604052808281526020016002838154811061089a57610899611247565b5b9060005260206000209060050201600201548152602001600283815481106108c5576108c4611247565b5b9060005260206000209060050201600401548152508282815181106108ed576108ec611247565b5b60200260200101819052505b8080600101915050610830565b508091505090565b60008054906101000a900473ffffffffffffffffffffffffffffffffffffffff1673ffffffffffffffffffffffffffffffffffffffff163373ffffffffffffffffffffffffffffffffffffffff161461099c576040517f08c379a0000000000000000000000000000000000000000000000000000000008152600401610993906115a0565b60405180910390fd5b806000806101000a81548173ffffffffffffffffffffffffffffffffffffffff021916908373ffffffffffffffffffffffffffffffffffffffff16021790555050565b6000600280549050905060006040518060a0016040528083815260200186868080601f016020809104026020016040519081016040528093929190818152602001838380828437600081840152601f19601f82011690508083019250505050505050815260200184815260200160011515815260200160008152509050600060038481548110610a7257610a71611247565b5b90600052602060002090600402016003015490508080610a91906115ef565b915060038581548110610aa757610aa6611247565b5b9060005260206000209060040201600301819055506002829080600181540180825580915050600190039060005260206000209060050201600090919091909150600082015181600001556020820151816001019081610b079190611482565b506040820151816002015560608201518160030160006101000a81548160ff021916908315150217905550608082015181600401555050505050505050565b60405180606001604052806000815260200160008152602001600081525090565b6000604051905090565b600080fd5b600080fd5b6000819050919050565b610b8e81610b7b565b8114610b9957600080fd5b50565b600081359050610bab81610b85565b92915050565b600060208284031215610bc757610bc6610b71565b5b6000610bd584828501610b9c565b91505092915050565b610be781610b7b565b82525050565b600081519050919050565b600082825260208201905092915050565b60005b83811015610c27578082015181840152602081019050610c0c565b60008484015250505050565b6000601f19601f8301169050919050565b6000610c4f82610bed565b610c598185610bf8565b9350610c69818560208601610c09565b610c7281610c33565b840191505092915050565b60008115159050919050565b610c9281610c7d565b82525050565b600060a082019050610cad6000830188610bde565b8181036020830152610cbf8187610c44565b9050610cce6040830186610bde565b610cdb6060830185610c89565b610ce86080830184610bde565b9695505050505050565b600080fd5b7f4e487b7100000000000000000000000000000000000000000000000000000000600052604160045260246000fd5b610d2f82610c33565b810181811067ffffffffffffffff82111715610d4e57610d4d610cf7565b5b80604052505050565b6000610d61610b67565b9050610d6d8282610d26565b919050565b600067ffffffffffffffff821115610d8d57610d8c610cf7565b5b602082029050602081019050919050565b600080fd5b600080fd5b600060408284031215610dbe57610dbd610da3565b5b610dc86040610d57565b90506000610dd884828501610b9c565b6000830152506020610dec84828501610b9c565b60208301525092915050565b6000610e0b610e0684610d72565b610d57565b90508083825260208201905060408402830185811115610e2e57610e2d610d9e565b5b835b81811015610e575780610e438882610da8565b845260208401935050604081019050610e30565b5050509392505050565b600082601f830112610e7657610e75610cf2565b5b8135610e86848260208601610df8565b91505092915050565b600060208284031215610ea557610ea4610b71565b5b600082013567ffffffffffffffff811115610ec357610ec2610b76565b5b610ecf84828501610e61565b91505092915050565b6000604082019050610eed6000830185610bde565b610efa6020830184610bde565b9392505050565b6000608082019050610f166000830187610bde565b8181036020830152610f288186610c44565b9050610f376040830185610c89565b610f446060830184610bde565b95945050505050565b600073ffffffffffffffffffffffffffffffffffffffff82169050919050565b6000610f7882610f4d565b9050919050565b610f8881610f6d565b82525050565b6000602082019050610fa36000830184610f7f565b92915050565b600080fd5b60008083601f840112610fc457610fc3610cf2565b5b8235905067ffffffffffffffff811115610fe157610fe0610fa9565b5b602083019150836001820283011115610ffd57610ffc610d9e565b5b9250929050565b6000806020838503121561101b5761101a610b71565b5b600083013567ffffffffffffffff81111561103957611038610b76565b5b61104585828601610fae565b92509250509250929050565b60006020820190506110666000830184610bde565b92915050565b600081519050919050565b600082825260208201905092915050565b6000819050602082019050919050565b6110a181610b7b565b82525050565b6060820160008201516110bd6000850182611098565b5060208201516110d06020850182611098565b5060408201516110e36040850182611098565b50505050565b60006110f583836110a7565b60608301905092915050565b6000602082019050919050565b60006111198261106c565b6111238185611077565b935061112e83611088565b8060005b8381101561115f57815161114688826110e9565b975061115183611101565b925050600181019050611132565b5085935050505092915050565b60006020820190508181036000830152611186818461110e565b905092915050565b61119781610f6d565b81146111a257600080fd5b50565b6000813590506111b48161118e565b92915050565b6000602082840312156111d0576111cf610b71565b5b60006111de848285016111a5565b91505092915050565b600080600060408486031215611200576111ff610b71565b5b600084013567ffffffffffffffff81111561121e5761121d610b76565b5b61122a86828701610fae565b9350935050602061123d86828701610b9c565b9150509250925092565b7f4e487b7100000000000000000000000000000000000000000000000000000000600052603260045260246000fd5b7f4e487b7100000000000000000000000000000000000000000000000000000000600052602260045260246000fd5b600060028204905060018216806112bd57607f821691505b6020821081036112d0576112cf611276565b5b50919050565b60008190508160005260206000209050919050565b60006020601f8301049050919050565b600082821b905092915050565b6000600883026113387fffffffffffffffffffffffffffffffffffffffffffffffffffffffffffffffff826112fb565b61134286836112fb565b95508019841693508086168417925050509392505050565b6000819050919050565b600061137f61137a61137584610b7b565b61135a565b610b7b565b9050919050565b6000819050919050565b61139983611364565b6113ad6113a582611386565b848454611308565b825550505050565b600090565b6113c26113b5565b6113cd818484611390565b505050565b5b818110156113f1576113e66000826113ba565b6001810190506113d3565b5050565b601f82111561143657611407816112d6565b611410846112eb565b8101602085101561141f578190505b61143361142b856112eb565b8301826113d2565b50505b505050565b600082821c905092915050565b60006114596000198460080261143b565b1980831691505092915050565b60006114728383611448565b9150826002028217905092915050565b61148b82610bed565b67ffffffffffffffff8111156114a4576114a3610cf7565b5b6114ae82546112a5565b6114b98282856113f5565b600060209050601f8311600181146114ec57600084156114da578287015190505b6114e48582611466565b86555061154c565b601f1984166114fa866112d6565b60005b82811015611522578489015182556001820191506020850194506020810190506114fd565b8683101561153f578489015161153b601f891682611448565b8355505b6001600288020188555050505b505050505050565b7f756e617574686f72697a65640000000000000000000000000000000000000000600082015250565b600061158a600c83610bf8565b915061159582611554565b602082019050919050565b600060208201905081810360008301526115b98161157d565b9050919050565b7f4e487b7100000000000000000000000000000000000000000000000000000000600052601160045260246000fd5b60006115fa82610b7b565b91507fffffffffffffffffffffffffffffffffffffffffffffffffffffffffffffffff820361162c5761162b6115c0565b5b60018201905091905056fea264697066735822122053c5828a8cbaf6c7b7da4fefa8086e35ed37eb7bd2a137bc4b92be3b1779a18364736f6c63430008180033a2646970667358221220642c8f51514b7c6734a6ddf3a92b99af004ec6ee9e73b16db4eaf62bd99bd65164736f6c63430008180033",
  "linkReferences": {},
  "deployedLinkReferences": {}
}